{
  "contractName": "SignalServer",
  "abi": [
    {
      "anonymous": false,
      "inputs": [
        {
          "indexed": true,
          "name": "from",
          "type": "address"
        },
        {
          "indexed": true,
          "name": "to",
          "type": "address"
        },
        {
          "indexed": false,
          "name": "signal",
          "type": "string"
        }
      ],
      "name": "Signal",
      "type": "event"
    },
    {
      "constant": false,
      "inputs": [
        {
          "name": "dest",
          "type": "address"
        },
        {
          "name": "value",
          "type": "bool"
        }
      ],
      "name": "setPermissions",
      "outputs": [],
      "payable": false,
      "stateMutability": "nonpayable",
      "type": "function"
    },
    {
      "constant": false,
      "inputs": [
        {
          "name": "to",
          "type": "address"
        },
        {
          "name": "_msg",
          "type": "string"
        }
      ],
      "name": "signal",
      "outputs": [],
      "payable": false,
      "stateMutability": "nonpayable",
      "type": "function"
    }
  ],
  "bytecode": "0x608060405234801561001057600080fd5b506102d6806100206000396000f30060806040526004361061004c576000357c0100000000000000000000000000000000000000000000000000000000900463ffffffff1680636165234c14610051578063f215ca83146100a0575b600080fd5b34801561005d57600080fd5b5061009e600480360381019080803573ffffffffffffffffffffffffffffffffffffffff1690602001909291908035151590602001909291905050506100fb565b005b3480156100ac57600080fd5b506100f9600480360381019080803573ffffffffffffffffffffffffffffffffffffffff169060200190929190803590602001908201803590602001919091929391929390505050610192565b005b806000808473ffffffffffffffffffffffffffffffffffffffff1673ffffffffffffffffffffffffffffffffffffffff16815260200190815260200160002060003373ffffffffffffffffffffffffffffffffffffffff1673ffffffffffffffffffffffffffffffffffffffff16815260200190815260200160002060006101000a81548160ff0219169083151502179055505050565b6000803373ffffffffffffffffffffffffffffffffffffffff1673ffffffffffffffffffffffffffffffffffffffff16815260200190815260200160002060008473ffffffffffffffffffffffffffffffffffffffff1673ffffffffffffffffffffffffffffffffffffffff16815260200190815260200160002060009054906101000a900460ff16151561022657600080fd5b8273ffffffffffffffffffffffffffffffffffffffff163373ffffffffffffffffffffffffffffffffffffffff167f7691a31c50fb9044c1ceea1f7413cdb0c814e678d426cc2446702c23dcbc69808484604051808060200182810382528484828181526020019250808284378201915050935050505060405180910390a35050505600a165627a7a723058206494600d18ac61d1d8d9f3901f7d34f81eee11288c1d93e2055201ad1eaaeb8b0029",
  "source": "pragma solidity ^0.4.24;\ncontract SignalServer {\n\tmapping (address => mapping(address => bool)) canSend;\n\n\tevent Signal(address indexed from, address indexed to, string signal);\n\n\tfunction setPermissions(address dest, bool value) external {\n\t\tcanSend[dest][msg.sender] = value;\n\t}\n\n\tfunction signal(address to, string _msg) external {\n\t\trequire(canSend[msg.sender][to]);\n\t\temit Signal(msg.sender, to, _msg);\n\t}\n}\n",
  "sourcePath": "/Users/avisaven/Documents/Work/Zap/eth-signal/contract/contracts/SignalServer.sol",
  "compiler": {
    "name": "solc",
    "version": "0.4.24+commit.e67f0147.Emscripten.clang"
  },
  "schemaVersion": "2.0.0",
  "updatedAt": "2018-08-17T17:54:54.902Z"
}