{
  "contractName": "SignalServer",
  "abi": [
    {
      "anonymous": false,
      "inputs": [
        {
          "indexed": true,
          "name": "from",
          "type": "address"
        },
        {
          "indexed": true,
          "name": "to",
          "type": "address"
        },
        {
          "indexed": false,
          "name": "signal",
          "type": "string"
        }
      ],
      "name": "Signal",
      "type": "event"
    },
    {
      "constant": false,
      "inputs": [
        {
          "name": "from",
          "type": "address"
        },
        {
          "name": "to",
          "type": "address"
        },
        {
          "name": "_msg",
          "type": "string"
        }
      ],
      "name": "signal",
      "outputs": [],
      "payable": false,
      "stateMutability": "nonpayable",
      "type": "function"
    }
  ],
  "bytecode": "0x608060405234801561001057600080fd5b506101ea806100206000396000f300608060405260043610610041576000357c0100000000000000000000000000000000000000000000000000000000900463ffffffff168063e669941614610046575b600080fd5b34801561005257600080fd5b506100ed600480360381019080803573ffffffffffffffffffffffffffffffffffffffff169060200190929190803573ffffffffffffffffffffffffffffffffffffffff169060200190929190803590602001908201803590602001908080601f01602080910402602001604051908101604052809392919081815260200183838082843782019150505050505091929192905050506100ef565b005b8173ffffffffffffffffffffffffffffffffffffffff168373ffffffffffffffffffffffffffffffffffffffff167f7691a31c50fb9044c1ceea1f7413cdb0c814e678d426cc2446702c23dcbc6980836040518080602001828103825283818151815260200191508051906020019080838360005b8381101561017f578082015181840152602081019050610164565b50505050905090810190601f1680156101ac5780820380516001836020036101000a031916815260200191505b509250505060405180910390a35050505600a165627a7a723058206fd583d4c946a5aec3be317c4dde648e5a6411e119f2a757b8a0c61287adb9680029",
  "source": "pragma solidity ^0.4.24;\ncontract SignalServer {\n\tevent Signal(address indexed from, address indexed to, string signal);\n\n\tfunction signal(address from, address to, string _msg) public {\n\t\temit Signal(from, to, _msg);\n\t}\n}\n",
  "sourcePath": "/Users/avisaven/Downloads/tmp/test/contracts/test.sol",
  "compiler": {
    "name": "solc",
    "version": "0.4.24+commit.e67f0147.Emscripten.clang"
  },
  "schemaVersion": "2.0.0",
  "updatedAt": "2018-08-14T02:50:08.270Z"
}