{
  "contractName": "SignalServer",
  "abi": [
    {
      "anonymous": false,
      "inputs": [
        {
          "indexed": true,
          "name": "from",
          "type": "address"
        },
        {
          "indexed": true,
          "name": "to",
          "type": "address"
        },
        {
          "indexed": false,
          "name": "signal",
          "type": "string"
        }
      ],
      "name": "Signal",
      "type": "event"
    },
    {
      "constant": true,
      "inputs": [
        {
          "name": "from",
          "type": "address"
        },
        {
          "name": "to",
          "type": "address"
        }
      ],
      "name": "getPermissions",
      "outputs": [
        {
          "name": "",
          "type": "bool"
        }
      ],
      "payable": false,
      "stateMutability": "view",
      "type": "function"
    },
    {
      "constant": false,
      "inputs": [
        {
          "name": "dest",
          "type": "address"
        },
        {
          "name": "value",
          "type": "bool"
        }
      ],
      "name": "setPermissions",
      "outputs": [],
      "payable": false,
      "stateMutability": "nonpayable",
      "type": "function"
    },
    {
      "constant": false,
      "inputs": [
        {
          "name": "to",
          "type": "address"
        },
        {
          "name": "_msg",
          "type": "string"
        }
      ],
      "name": "signal",
      "outputs": [],
      "payable": false,
      "stateMutability": "nonpayable",
      "type": "function"
    }
  ],
  "bytecode": "0x608060405234801561001057600080fd5b506103ef806100206000396000f300608060405260043610610057576000357c0100000000000000000000000000000000000000000000000000000000900463ffffffff1680634757d3bb1461005c5780636165234c146100d7578063f215ca8314610126575b600080fd5b34801561006857600080fd5b506100bd600480360381019080803573ffffffffffffffffffffffffffffffffffffffff169060200190929190803573ffffffffffffffffffffffffffffffffffffffff169060200190929190505050610181565b604051808215151515815260200191505060405180910390f35b3480156100e357600080fd5b50610124600480360381019080803573ffffffffffffffffffffffffffffffffffffffff169060200190929190803515159060200190929190505050610214565b005b34801561013257600080fd5b5061017f600480360381019080803573ffffffffffffffffffffffffffffffffffffffff1690602001909291908035906020019082018035906020019190919293919293905050506102ab565b005b60008060008473ffffffffffffffffffffffffffffffffffffffff1673ffffffffffffffffffffffffffffffffffffffff16815260200190815260200160002060008373ffffffffffffffffffffffffffffffffffffffff1673ffffffffffffffffffffffffffffffffffffffff16815260200190815260200160002060009054906101000a900460ff16905092915050565b806000808473ffffffffffffffffffffffffffffffffffffffff1673ffffffffffffffffffffffffffffffffffffffff16815260200190815260200160002060003373ffffffffffffffffffffffffffffffffffffffff1673ffffffffffffffffffffffffffffffffffffffff16815260200190815260200160002060006101000a81548160ff0219169083151502179055505050565b6000803373ffffffffffffffffffffffffffffffffffffffff1673ffffffffffffffffffffffffffffffffffffffff16815260200190815260200160002060008473ffffffffffffffffffffffffffffffffffffffff1673ffffffffffffffffffffffffffffffffffffffff16815260200190815260200160002060009054906101000a900460ff16151561033f57600080fd5b8273ffffffffffffffffffffffffffffffffffffffff163373ffffffffffffffffffffffffffffffffffffffff167f7691a31c50fb9044c1ceea1f7413cdb0c814e678d426cc2446702c23dcbc69808484604051808060200182810382528484828181526020019250808284378201915050935050505060405180910390a35050505600a165627a7a7230582021f1ebb9cf81a24c2811e147112f885a3c12acd0a5fba3758f5e9cb1a305e9b70029",
  "source": "pragma solidity ^0.4.24;\n\ncontract SignalServer {\n\tmapping (address => mapping(address => bool)) canSend;\n\n\tevent Signal(address indexed from, address indexed to, string signal);\n\n\tfunction getPermissions(address from, address to) public view returns (bool) {\n\t\treturn canSend[from][to];\n\t}\n\n\tfunction setPermissions(address dest, bool value) external {\n\t\tcanSend[dest][msg.sender] = value;\n\t}\n\n\tfunction signal(address to, string _msg) external {\n\t\trequire(canSend[msg.sender][to]);\n\t\temit Signal(msg.sender, to, _msg);\n\t}\n}\n",
  "sourcePath": "/Users/avisaven/Documents/Work/Zap/eth-signal/contract/contracts/SignalServer.sol",
  "compiler": {
    "name": "solc",
    "version": "0.4.24+commit.e67f0147.Emscripten.clang"
  },
  "schemaVersion": "2.0.0",
  "updatedAt": "2018-08-17T18:15:54.834Z"
}